{
  "_format": "hh-sol-artifact-1",
  "contractName": "ELYSBTCSwap",
  "sourceName": "contracts/ELYSBTCSwap.sol",
  "abi": [
    {
      "anonymous": false,
      "inputs": [
        {
          "indexed": true,
          "internalType": "address",
          "name": "",
          "type": "address"
        },
        {
          "indexed": false,
          "internalType": "uint256",
          "name": "renBTCIn",
          "type": "uint256"
        },
        {
          "indexed": false,
          "internalType": "uint256",
          "name": "ELYSOut",
          "type": "uint256"
        }
      ],
      "name": "BTCToELYSSwap",
      "type": "event"
    },
    {
      "anonymous": false,
      "inputs": [
        {
          "indexed": true,
          "internalType": "address",
          "name": "",
          "type": "address"
        },
        {
          "indexed": false,
          "internalType": "uint256",
          "name": "ELYSIn",
          "type": "uint256"
        },
        {
          "indexed": false,
          "internalType": "uint256",
          "name": "renBTCOut",
          "type": "uint256"
        }
      ],
      "name": "ELYStoRenBTCSwap",
      "type": "event"
    },
    {
      "inputs": [],
      "name": "ELYS",
      "outputs": [
        {
          "internalType": "contract IERC20",
          "name": "",
          "type": "address"
        }
      ],
      "stateMutability": "view",
      "type": "function"
    },
    {
      "inputs": [],
      "name": "WFTM",
      "outputs": [
        {
          "internalType": "contract IERC20",
          "name": "",
          "type": "address"
        }
      ],
      "stateMutability": "view",
      "type": "function"
    },
    {
      "inputs": [],
      "name": "hyperJumpRouter",
      "outputs": [
        {
          "internalType": "contract IUniswapV2Router02",
          "name": "",
          "type": "address"
        }
      ],
      "stateMutability": "view",
      "type": "function"
    },
    {
      "inputs": [],
      "name": "registry",
      "outputs": [
        {
          "internalType": "contract IGatewayRegistry",
          "name": "",
          "type": "address"
        }
      ],
      "stateMutability": "view",
      "type": "function"
    },
    {
      "inputs": [],
      "name": "renBTC",
      "outputs": [
        {
          "internalType": "contract IERC20",
          "name": "",
          "type": "address"
        }
      ],
      "stateMutability": "view",
      "type": "function"
    },
    {
      "inputs": [
        {
          "internalType": "address",
          "name": "_user",
          "type": "address"
        },
        {
          "internalType": "uint256",
          "name": "_amount",
          "type": "uint256"
        },
        {
          "internalType": "bytes32",
          "name": "_nHash",
          "type": "bytes32"
        },
        {
          "internalType": "bytes",
          "name": "_sig",
          "type": "bytes"
        }
      ],
      "name": "swapBTCToELYS",
      "outputs": [],
      "stateMutability": "nonpayable",
      "type": "function"
    },
    {
      "inputs": [
        {
          "internalType": "uint256",
          "name": "amountIn",
          "type": "uint256"
        }
      ],
      "name": "swapELYSToRenBTC",
      "outputs": [
        {
          "internalType": "uint256",
          "name": "renBTCOut",
          "type": "uint256"
        }
      ],
      "stateMutability": "nonpayable",
      "type": "function"
    },
    {
      "inputs": [],
      "name": "zooDexRouter",
      "outputs": [
        {
          "internalType": "contract IUniswapV2Router02",
          "name": "",
          "type": "address"
        }
      ],
      "stateMutability": "view",
      "type": "function"
    }
  ],
  "bytecode": "0x608060405273d89cc0d2a28a769eadef50fff74ebc07405db9fc6000806101000a81548173ffffffffffffffffffffffffffffffffffffffff021916908373ffffffffffffffffffffffffffffffffffffffff1602179055507321be370d5312f44cb42ce377bc9b8a0cef1a4c83600160006101000a81548173ffffffffffffffffffffffffffffffffffffffff021916908373ffffffffffffffffffffffffffffffffffffffff16021790555073dbf31df14b66535af65aac99c32e9ea844e14501600260006101000a81548173ffffffffffffffffffffffffffffffffffffffff021916908373ffffffffffffffffffffffffffffffffffffffff1602179055507340b12a3e261416ff0035586ff96e23c2894560f2600360006101000a81548173ffffffffffffffffffffffffffffffffffffffff021916908373ffffffffffffffffffffffffffffffffffffffff1602179055507353c153a0df7e050bbefbb70ee9632061f12795fb600460006101000a81548173ffffffffffffffffffffffffffffffffffffffff021916908373ffffffffffffffffffffffffffffffffffffffff16021790555073f36666c230fa12333579b9bd6196cb634d6bc506600560006101000a81548173ffffffffffffffffffffffffffffffffffffffff021916908373ffffffffffffffffffffffffffffffffffffffff16021790555034801561020d57600080fd5b50611afa8061021d6000396000f3fe608060405234801561001057600080fd5b50600436106100885760003560e01c80637b1039991161005b5780637b10399914610117578063be886a2914610135578063d18ff08614610153578063e52dc6fe1461016f57610088565b806308d25d591461008d5780631bad4264146100ab57806321dbe876146100db5780635fbc1031146100f9575b600080fd5b61009561018d565b6040516100a2919061168b565b60405180910390f35b6100c560048036038101906100c091906113bb565b6101b3565b6040516100d291906116f6565b60405180910390f35b6100e3610821565b6040516100f09190611655565b60405180910390f35b610101610847565b60405161010e9190611655565b60405180910390f35b61011f61086d565b60405161012c9190611670565b60405180910390f35b61013d610893565b60405161014a919061168b565b60405180910390f35b61016d60048036038101906101689190611290565b6108b9565b005b610177610a37565b6040516101849190611655565b60405180910390f35b600460009054906101000a900473ffffffffffffffffffffffffffffffffffffffff1681565b60008060009054906101000a900473ffffffffffffffffffffffffffffffffffffffff1673ffffffffffffffffffffffffffffffffffffffff166323b872dd3330856040518463ffffffff1660e01b8152600401610213939291906115a7565b602060405180830381600087803b15801561022d57600080fd5b505af1158015610241573d6000803e3d6000fd5b505050506040513d601f19601f820116820180604052508101906102659190611361565b506000600267ffffffffffffffff811115610283576102826119cf565b5b6040519080825280602002602001820160405280156102b15781602001602082028036833780820191505090505b50905060008054906101000a900473ffffffffffffffffffffffffffffffffffffffff16816000815181106102e9576102e86119a0565b5b602002602001019073ffffffffffffffffffffffffffffffffffffffff16908173ffffffffffffffffffffffffffffffffffffffff1681525050600160009054906101000a900473ffffffffffffffffffffffffffffffffffffffff168160018151811061035a576103596119a0565b5b602002602001019073ffffffffffffffffffffffffffffffffffffffff16908173ffffffffffffffffffffffffffffffffffffffff168152505060008054906101000a900473ffffffffffffffffffffffffffffffffffffffff1673ffffffffffffffffffffffffffffffffffffffff1663095ea7b3600360009054906101000a900473ffffffffffffffffffffffffffffffffffffffff16856040518363ffffffff1660e01b81526004016104119291906115de565b602060405180830381600087803b15801561042b57600080fd5b505af115801561043f573d6000803e3d6000fd5b505050506040513d601f19601f820116820180604052508101906104639190611361565b506000600360009054906101000a900473ffffffffffffffffffffffffffffffffffffffff1673ffffffffffffffffffffffffffffffffffffffff166338ed17398560018530426040518663ffffffff1660e01b81526004016104ca959493929190611711565b600060405180830381600087803b1580156104e457600080fd5b505af11580156104f8573d6000803e3d6000fd5b505050506040513d6000823e3d601f19601f820116820180604052508101906105219190611318565b600181518110610534576105336119a0565b5b60200260200101519050600160009054906101000a900473ffffffffffffffffffffffffffffffffffffffff1682600081518110610575576105746119a0565b5b602002602001019073ffffffffffffffffffffffffffffffffffffffff16908173ffffffffffffffffffffffffffffffffffffffff1681525050600260009054906101000a900473ffffffffffffffffffffffffffffffffffffffff16826001815181106105e6576105e56119a0565b5b602002602001019073ffffffffffffffffffffffffffffffffffffffff16908173ffffffffffffffffffffffffffffffffffffffff1681525050600160009054906101000a900473ffffffffffffffffffffffffffffffffffffffff1673ffffffffffffffffffffffffffffffffffffffff1663095ea7b3600460009054906101000a900473ffffffffffffffffffffffffffffffffffffffff16836040518363ffffffff1660e01b815260040161069f9291906115de565b602060405180830381600087803b1580156106b957600080fd5b505af11580156106cd573d6000803e3d6000fd5b505050506040513d601f19601f820116820180604052508101906106f19190611361565b50600460009054906101000a900473ffffffffffffffffffffffffffffffffffffffff1673ffffffffffffffffffffffffffffffffffffffff166338ed17398260018533426040518663ffffffff1660e01b8152600401610756959493929190611711565b600060405180830381600087803b15801561077057600080fd5b505af1158015610784573d6000803e3d6000fd5b505050506040513d6000823e3d601f19601f820116820180604052508101906107ad9190611318565b6001815181106107c0576107bf6119a0565b5b602002602001015192503373ffffffffffffffffffffffffffffffffffffffff167f95fcf03a74b1803524e42cf24d88038148c008e7601bb7e7c0da8be421d7a7be858560405161081292919061176b565b60405180910390a25050919050565b600160009054906101000a900473ffffffffffffffffffffffffffffffffffffffff1681565b600260009054906101000a900473ffffffffffffffffffffffffffffffffffffffff1681565b600560009054906101000a900473ffffffffffffffffffffffffffffffffffffffff1681565b600360009054906101000a900473ffffffffffffffffffffffffffffffffffffffff1681565b6000856040516020016108cc919061158c565b6040516020818303038152906040528051906020012090506000600560009054906101000a900473ffffffffffffffffffffffffffffffffffffffff1673ffffffffffffffffffffffffffffffffffffffff166364936b1e6040518163ffffffff1660e01b815260040161093f906116d6565b60206040518083038186803b15801561095757600080fd5b505afa15801561096b573d6000803e3d6000fd5b505050506040513d601f19601f8201168201806040525081019061098f919061138e565b73ffffffffffffffffffffffffffffffffffffffff1663159ab14d83888888886040518663ffffffff1660e01b81526004016109cf959493929190611607565b602060405180830381600087803b1580156109e957600080fd5b505af11580156109fd573d6000803e3d6000fd5b505050506040513d601f19601f82011682018060405250810190610a2191906113e8565b9050610a2d8188610a5b565b5050505050505050565b60008054906101000a900473ffffffffffffffffffffffffffffffffffffffff1681565b600080600267ffffffffffffffff811115610a7957610a786119cf565b5b604051908082528060200260200182016040528015610aa75781602001602082028036833780820191505090505b509050600260009054906101000a900473ffffffffffffffffffffffffffffffffffffffff1681600081518110610ae157610ae06119a0565b5b602002602001019073ffffffffffffffffffffffffffffffffffffffff16908173ffffffffffffffffffffffffffffffffffffffff1681525050600160009054906101000a900473ffffffffffffffffffffffffffffffffffffffff1681600181518110610b5257610b516119a0565b5b602002602001019073ffffffffffffffffffffffffffffffffffffffff16908173ffffffffffffffffffffffffffffffffffffffff1681525050600260009054906101000a900473ffffffffffffffffffffffffffffffffffffffff1673ffffffffffffffffffffffffffffffffffffffff1663095ea7b3600460009054906101000a900473ffffffffffffffffffffffffffffffffffffffff16866040518363ffffffff1660e01b8152600401610c0b9291906115de565b602060405180830381600087803b158015610c2557600080fd5b505af1158015610c39573d6000803e3d6000fd5b505050506040513d601f19601f82011682018060405250810190610c5d9190611361565b506000600460009054906101000a900473ffffffffffffffffffffffffffffffffffffffff1673ffffffffffffffffffffffffffffffffffffffff166338ed17398660018530426040518663ffffffff1660e01b8152600401610cc4959493929190611711565b600060405180830381600087803b158015610cde57600080fd5b505af1158015610cf2573d6000803e3d6000fd5b505050506040513d6000823e3d601f19601f82011682018060405250810190610d1b9190611318565b600181518110610d2e57610d2d6119a0565b5b60200260200101519050600160009054906101000a900473ffffffffffffffffffffffffffffffffffffffff1682600081518110610d6f57610d6e6119a0565b5b602002602001019073ffffffffffffffffffffffffffffffffffffffff16908173ffffffffffffffffffffffffffffffffffffffff168152505060008054906101000a900473ffffffffffffffffffffffffffffffffffffffff1682600181518110610dde57610ddd6119a0565b5b602002602001019073ffffffffffffffffffffffffffffffffffffffff16908173ffffffffffffffffffffffffffffffffffffffff1681525050600160009054906101000a900473ffffffffffffffffffffffffffffffffffffffff1673ffffffffffffffffffffffffffffffffffffffff1663095ea7b3600360009054906101000a900473ffffffffffffffffffffffffffffffffffffffff16836040518363ffffffff1660e01b8152600401610e979291906115de565b602060405180830381600087803b158015610eb157600080fd5b505af1158015610ec5573d6000803e3d6000fd5b505050506040513d601f19601f82011682018060405250810190610ee99190611361565b50600360009054906101000a900473ffffffffffffffffffffffffffffffffffffffff1673ffffffffffffffffffffffffffffffffffffffff166338ed17398260018588426040518663ffffffff1660e01b8152600401610f4e959493929190611711565b600060405180830381600087803b158015610f6857600080fd5b505af1158015610f7c573d6000803e3d6000fd5b505050506040513d6000823e3d601f19601f82011682018060405250810190610fa59190611318565b600181518110610fb857610fb76119a0565b5b602002602001015192506110016040518060400160405280600881526020017f454c59534f75743a00000000000000000000000000000000000000000000000081525084611059565b8373ffffffffffffffffffffffffffffffffffffffff167fb8f795e38a4b5e2bfa6196df0bae8f535cce4fa789147adf2c568cb3cdb7c592868560405161104992919061176b565b60405180910390a2505092915050565b6110f1828260405160240161106f9291906116a6565b6040516020818303038152906040527f9710a9d0000000000000000000000000000000000000000000000000000000007bffffffffffffffffffffffffffffffffffffffffffffffffffffffff19166020820180517bffffffffffffffffffffffffffffffffffffffffffffffffffffffff83818316178352505050506110f5565b5050565b60008151905060006a636f6e736f6c652e6c6f679050602083016000808483855afa5050505050565b600061113161112c846117b9565b611794565b9050808382526020820190508285602086028201111561115457611153611a08565b5b60005b85811015611184578161116a888261127b565b845260208401935060208301925050600181019050611157565b5050509392505050565b60008135905061119d81611a51565b92915050565b600082601f8301126111b8576111b7611a03565b5b81516111c884826020860161111e565b91505092915050565b6000815190506111e081611a68565b92915050565b6000813590506111f581611a7f565b92915050565b60008083601f84011261121157611210611a03565b5b8235905067ffffffffffffffff81111561122e5761122d6119fe565b5b60208301915083600182028301111561124a57611249611a08565b5b9250929050565b60008151905061126081611a96565b92915050565b60008135905061127581611aad565b92915050565b60008151905061128a81611aad565b92915050565b6000806000806000608086880312156112ac576112ab611a12565b5b60006112ba8882890161118e565b95505060206112cb88828901611266565b94505060406112dc888289016111e6565b935050606086013567ffffffffffffffff8111156112fd576112fc611a0d565b5b611309888289016111fb565b92509250509295509295909350565b60006020828403121561132e5761132d611a12565b5b600082015167ffffffffffffffff81111561134c5761134b611a0d565b5b611358848285016111a3565b91505092915050565b60006020828403121561137757611376611a12565b5b6000611385848285016111d1565b91505092915050565b6000602082840312156113a4576113a3611a12565b5b60006113b284828501611251565b91505092915050565b6000602082840312156113d1576113d0611a12565b5b60006113df84828501611266565b91505092915050565b6000602082840312156113fe576113fd611a12565b5b600061140c8482850161127b565b91505092915050565b6000611421838361142d565b60208301905092915050565b6114368161184b565b82525050565b6114458161184b565b82525050565b6000611456826117f5565b6114608185611818565b935061146b836117e5565b8060005b8381101561149c5781516114838882611415565b975061148e8361180b565b92505060018101905061146f565b5085935050505092915050565b6114b281611869565b82525050565b60006114c48385611829565b93506114d183858461192d565b6114da83611a17565b840190509392505050565b6114ee816118af565b82525050565b6114fd816118d3565b82525050565b61150c816118f7565b82525050565b61151b8161191b565b82525050565b600061152c82611800565b611536818561183a565b935061154681856020860161193c565b61154f81611a17565b840191505092915050565b600061156760038361183a565b915061157282611a28565b602082019050919050565b611586816118a5565b82525050565b60006020820190506115a1600083018461143c565b92915050565b60006060820190506115bc600083018661143c565b6115c9602083018561143c565b6115d6604083018461157d565b949350505050565b60006040820190506115f3600083018561143c565b611600602083018461157d565b9392505050565b600060808201905061161c60008301886114a9565b611629602083018761157d565b61163660408301866114a9565b81810360608301526116498184866114b8565b90509695505050505050565b600060208201905061166a60008301846114e5565b92915050565b600060208201905061168560008301846114f4565b92915050565b60006020820190506116a06000830184611503565b92915050565b600060408201905081810360008301526116c08185611521565b90506116cf602083018461157d565b9392505050565b600060208201905081810360008301526116ef8161155a565b9050919050565b600060208201905061170b600083018461157d565b92915050565b600060a082019050611726600083018861157d565b6117336020830187611512565b8181036040830152611745818661144b565b9050611754606083018561143c565b611761608083018461157d565b9695505050505050565b6000604082019050611780600083018561157d565b61178d602083018461157d565b9392505050565b600061179e6117af565b90506117aa828261196f565b919050565b6000604051905090565b600067ffffffffffffffff8211156117d4576117d36119cf565b5b602082029050602081019050919050565b6000819050602082019050919050565b600081519050919050565b600081519050919050565b6000602082019050919050565b600082825260208201905092915050565b600082825260208201905092915050565b600082825260208201905092915050565b600061185682611885565b9050919050565b60008115159050919050565b6000819050919050565b600061187e8261184b565b9050919050565b600073ffffffffffffffffffffffffffffffffffffffff82169050919050565b6000819050919050565b60006118ba826118c1565b9050919050565b60006118cc82611885565b9050919050565b60006118de826118e5565b9050919050565b60006118f082611885565b9050919050565b600061190282611909565b9050919050565b600061191482611885565b9050919050565b6000611926826118a5565b9050919050565b82818337600083830152505050565b60005b8381101561195a57808201518184015260208101905061193f565b83811115611969576000848401525b50505050565b61197882611a17565b810181811067ffffffffffffffff82111715611997576119966119cf565b5b80604052505050565b7f4e487b7100000000000000000000000000000000000000000000000000000000600052603260045260246000fd5b7f4e487b7100000000000000000000000000000000000000000000000000000000600052604160045260246000fd5b600080fd5b600080fd5b600080fd5b600080fd5b600080fd5b6000601f19601f8301169050919050565b7f4254430000000000000000000000000000000000000000000000000000000000600082015250565b611a5a8161184b565b8114611a6557600080fd5b50565b611a718161185d565b8114611a7c57600080fd5b50565b611a8881611869565b8114611a9357600080fd5b50565b611a9f81611873565b8114611aaa57600080fd5b50565b611ab6816118a5565b8114611ac157600080fd5b5056fea2646970667358221220d146402cfc727036aa0fc0061d2ab881de814d50b0bcc76e05b13963429fc18164736f6c63430008060033",
  "linkReferences": {},
  "deployedLinkReferences": {}
}