{
  "_format": "hh-sol-artifact-1",
  "contractName": "ELYSBTCSwap",
  "sourceName": "contracts/ELYSBTCSwap.sol",
  "abi": [
    {
      "anonymous": false,
      "inputs": [
        {
          "indexed": true,
          "internalType": "address",
          "name": "",
          "type": "address"
        },
        {
          "indexed": false,
          "internalType": "uint256",
          "name": "renBTCIn",
          "type": "uint256"
        },
        {
          "indexed": false,
          "internalType": "uint256",
          "name": "ELYSOut",
          "type": "uint256"
        },
        {
          "indexed": false,
          "internalType": "bytes",
          "name": "_msg",
          "type": "bytes"
        }
      ],
      "name": "BTCToELYSSwap",
      "type": "event"
    },
    {
      "anonymous": false,
      "inputs": [
        {
          "indexed": true,
          "internalType": "address",
          "name": "",
          "type": "address"
        },
        {
          "indexed": false,
          "internalType": "uint256",
          "name": "ELYSIn",
          "type": "uint256"
        },
        {
          "indexed": false,
          "internalType": "uint256",
          "name": "renBTCOut",
          "type": "uint256"
        }
      ],
      "name": "ELYStoRenBTCSwap",
      "type": "event"
    },
    {
      "inputs": [],
      "name": "ELYS",
      "outputs": [
        {
          "internalType": "contract IERC20",
          "name": "",
          "type": "address"
        }
      ],
      "stateMutability": "view",
      "type": "function"
    },
    {
      "inputs": [],
      "name": "WFTM",
      "outputs": [
        {
          "internalType": "contract IERC20",
          "name": "",
          "type": "address"
        }
      ],
      "stateMutability": "view",
      "type": "function"
    },
    {
      "inputs": [],
      "name": "hyperJumpRouter",
      "outputs": [
        {
          "internalType": "contract IUniswapV2Router02",
          "name": "",
          "type": "address"
        }
      ],
      "stateMutability": "view",
      "type": "function"
    },
    {
      "inputs": [],
      "name": "registry",
      "outputs": [
        {
          "internalType": "contract IGatewayRegistry",
          "name": "",
          "type": "address"
        }
      ],
      "stateMutability": "view",
      "type": "function"
    },
    {
      "inputs": [],
      "name": "renBTC",
      "outputs": [
        {
          "internalType": "contract IERC20",
          "name": "",
          "type": "address"
        }
      ],
      "stateMutability": "view",
      "type": "function"
    },
    {
      "inputs": [
        {
          "internalType": "bytes",
          "name": "_msg",
          "type": "bytes"
        },
        {
          "internalType": "uint256",
          "name": "_amount",
          "type": "uint256"
        },
        {
          "internalType": "bytes32",
          "name": "_nHash",
          "type": "bytes32"
        },
        {
          "internalType": "bytes",
          "name": "_sig",
          "type": "bytes"
        }
      ],
      "name": "swapBTCToELYS",
      "outputs": [],
      "stateMutability": "nonpayable",
      "type": "function"
    },
    {
      "inputs": [
        {
          "internalType": "uint256",
          "name": "amountIn",
          "type": "uint256"
        }
      ],
      "name": "swapELYSToRenBTC",
      "outputs": [
        {
          "internalType": "uint256",
          "name": "renBTCOut",
          "type": "uint256"
        }
      ],
      "stateMutability": "nonpayable",
      "type": "function"
    },
    {
      "inputs": [],
      "name": "zooDexRouter",
      "outputs": [
        {
          "internalType": "contract IUniswapV2Router02",
          "name": "",
          "type": "address"
        }
      ],
      "stateMutability": "view",
      "type": "function"
    }
  ],
  "bytecode": "0x608060405273d89cc0d2a28a769eadef50fff74ebc07405db9fc6000806101000a81548173ffffffffffffffffffffffffffffffffffffffff021916908373ffffffffffffffffffffffffffffffffffffffff1602179055507321be370d5312f44cb42ce377bc9b8a0cef1a4c83600160006101000a81548173ffffffffffffffffffffffffffffffffffffffff021916908373ffffffffffffffffffffffffffffffffffffffff16021790555073dbf31df14b66535af65aac99c32e9ea844e14501600260006101000a81548173ffffffffffffffffffffffffffffffffffffffff021916908373ffffffffffffffffffffffffffffffffffffffff1602179055507340b12a3e261416ff0035586ff96e23c2894560f2600360006101000a81548173ffffffffffffffffffffffffffffffffffffffff021916908373ffffffffffffffffffffffffffffffffffffffff1602179055507353c153a0df7e050bbefbb70ee9632061f12795fb600460006101000a81548173ffffffffffffffffffffffffffffffffffffffff021916908373ffffffffffffffffffffffffffffffffffffffff16021790555073f36666c230fa12333579b9bd6196cb634d6bc506600560006101000a81548173ffffffffffffffffffffffffffffffffffffffff021916908373ffffffffffffffffffffffffffffffffffffffff16021790555034801561020d57600080fd5b50611bf28061021d6000396000f3fe608060405234801561001057600080fd5b50600436106100885760003560e01c80635fbc10311161005b5780635fbc1031146101155780637b10399914610133578063be886a2914610151578063e52dc6fe1461016f57610088565b806308d25d591461008d5780631bad4264146100ab57806321dbe876146100db57806325674f1e146100f9575b600080fd5b61009561018d565b6040516100a2919061175a565b60405180910390f35b6100c560048036038101906100c09190611481565b6101b3565b6040516100d291906117c5565b60405180910390f35b6100e3610821565b6040516100f09190611724565b60405180910390f35b610113600480360381019061010e91906113ad565b610847565b005b61011d6109c9565b60405161012a9190611724565b60405180910390f35b61013b6109ef565b604051610148919061173f565b60405180910390f35b610159610a15565b604051610166919061175a565b60405180910390f35b610177610a3b565b6040516101849190611724565b60405180910390f35b600460009054906101000a900473ffffffffffffffffffffffffffffffffffffffff1681565b60008060009054906101000a900473ffffffffffffffffffffffffffffffffffffffff1673ffffffffffffffffffffffffffffffffffffffff166323b872dd3330856040518463ffffffff1660e01b815260040161021393929190611652565b602060405180830381600087803b15801561022d57600080fd5b505af1158015610241573d6000803e3d6000fd5b505050506040513d601f19601f820116820180604052508101906102659190611380565b506000600267ffffffffffffffff81111561028357610282611ade565b5b6040519080825280602002602001820160405280156102b15781602001602082028036833780820191505090505b50905060008054906101000a900473ffffffffffffffffffffffffffffffffffffffff16816000815181106102e9576102e8611aaf565b5b602002602001019073ffffffffffffffffffffffffffffffffffffffff16908173ffffffffffffffffffffffffffffffffffffffff1681525050600160009054906101000a900473ffffffffffffffffffffffffffffffffffffffff168160018151811061035a57610359611aaf565b5b602002602001019073ffffffffffffffffffffffffffffffffffffffff16908173ffffffffffffffffffffffffffffffffffffffff168152505060008054906101000a900473ffffffffffffffffffffffffffffffffffffffff1673ffffffffffffffffffffffffffffffffffffffff1663095ea7b3600360009054906101000a900473ffffffffffffffffffffffffffffffffffffffff16856040518363ffffffff1660e01b8152600401610411929190611689565b602060405180830381600087803b15801561042b57600080fd5b505af115801561043f573d6000803e3d6000fd5b505050506040513d601f19601f820116820180604052508101906104639190611380565b506000600360009054906101000a900473ffffffffffffffffffffffffffffffffffffffff1673ffffffffffffffffffffffffffffffffffffffff166338ed17398560018530426040518663ffffffff1660e01b81526004016104ca9594939291906117e0565b600060405180830381600087803b1580156104e457600080fd5b505af11580156104f8573d6000803e3d6000fd5b505050506040513d6000823e3d601f19601f820116820180604052508101906105219190611337565b60018151811061053457610533611aaf565b5b60200260200101519050600160009054906101000a900473ffffffffffffffffffffffffffffffffffffffff168260008151811061057557610574611aaf565b5b602002602001019073ffffffffffffffffffffffffffffffffffffffff16908173ffffffffffffffffffffffffffffffffffffffff1681525050600260009054906101000a900473ffffffffffffffffffffffffffffffffffffffff16826001815181106105e6576105e5611aaf565b5b602002602001019073ffffffffffffffffffffffffffffffffffffffff16908173ffffffffffffffffffffffffffffffffffffffff1681525050600160009054906101000a900473ffffffffffffffffffffffffffffffffffffffff1673ffffffffffffffffffffffffffffffffffffffff1663095ea7b3600460009054906101000a900473ffffffffffffffffffffffffffffffffffffffff16836040518363ffffffff1660e01b815260040161069f929190611689565b602060405180830381600087803b1580156106b957600080fd5b505af11580156106cd573d6000803e3d6000fd5b505050506040513d601f19601f820116820180604052508101906106f19190611380565b50600460009054906101000a900473ffffffffffffffffffffffffffffffffffffffff1673ffffffffffffffffffffffffffffffffffffffff166338ed17398260018533426040518663ffffffff1660e01b81526004016107569594939291906117e0565b600060405180830381600087803b15801561077057600080fd5b505af1158015610784573d6000803e3d6000fd5b505050506040513d6000823e3d601f19601f820116820180604052508101906107ad9190611337565b6001815181106107c0576107bf611aaf565b5b602002602001015192503373ffffffffffffffffffffffffffffffffffffffff167f95fcf03a74b1803524e42cf24d88038148c008e7601bb7e7c0da8be421d7a7be858560405161081292919061183a565b60405180910390a25050919050565b600160009054906101000a900473ffffffffffffffffffffffffffffffffffffffff1681565b6000868660405160200161085c929190611700565b6040516020818303038152906040528051906020012090506000600560009054906101000a900473ffffffffffffffffffffffffffffffffffffffff1673ffffffffffffffffffffffffffffffffffffffff166364936b1e6040518163ffffffff1660e01b81526004016108cf906117a5565b60206040518083038186803b1580156108e757600080fd5b505afa1580156108fb573d6000803e3d6000fd5b505050506040513d601f19601f8201168201806040525081019061091f9190611454565b73ffffffffffffffffffffffffffffffffffffffff1663159ab14d83888888886040518663ffffffff1660e01b815260040161095f9594939291906116b2565b602060405180830381600087803b15801561097957600080fd5b505af115801561098d573d6000803e3d6000fd5b505050506040513d601f19601f820116820180604052508101906109b191906114ae565b90506109be818989610a5f565b505050505050505050565b600260009054906101000a900473ffffffffffffffffffffffffffffffffffffffff1681565b600560009054906101000a900473ffffffffffffffffffffffffffffffffffffffff1681565b600360009054906101000a900473ffffffffffffffffffffffffffffffffffffffff1681565b60008054906101000a900473ffffffffffffffffffffffffffffffffffffffff1681565b6000600260009054906101000a900473ffffffffffffffffffffffffffffffffffffffff1673ffffffffffffffffffffffffffffffffffffffff166323b872dd3330876040518463ffffffff1660e01b8152600401610ac093929190611652565b602060405180830381600087803b158015610ada57600080fd5b505af1158015610aee573d6000803e3d6000fd5b505050506040513d601f19601f82011682018060405250810190610b129190611380565b506000600267ffffffffffffffff811115610b3057610b2f611ade565b5b604051908082528060200260200182016040528015610b5e5781602001602082028036833780820191505090505b509050600260009054906101000a900473ffffffffffffffffffffffffffffffffffffffff1681600081518110610b9857610b97611aaf565b5b602002602001019073ffffffffffffffffffffffffffffffffffffffff16908173ffffffffffffffffffffffffffffffffffffffff1681525050600160009054906101000a900473ffffffffffffffffffffffffffffffffffffffff1681600181518110610c0957610c08611aaf565b5b602002602001019073ffffffffffffffffffffffffffffffffffffffff16908173ffffffffffffffffffffffffffffffffffffffff1681525050600260009054906101000a900473ffffffffffffffffffffffffffffffffffffffff1673ffffffffffffffffffffffffffffffffffffffff1663095ea7b3600460009054906101000a900473ffffffffffffffffffffffffffffffffffffffff16876040518363ffffffff1660e01b8152600401610cc2929190611689565b602060405180830381600087803b158015610cdc57600080fd5b505af1158015610cf0573d6000803e3d6000fd5b505050506040513d601f19601f82011682018060405250810190610d149190611380565b506000600460009054906101000a900473ffffffffffffffffffffffffffffffffffffffff1673ffffffffffffffffffffffffffffffffffffffff166338ed17398760018530426040518663ffffffff1660e01b8152600401610d7b9594939291906117e0565b600060405180830381600087803b158015610d9557600080fd5b505af1158015610da9573d6000803e3d6000fd5b505050506040513d6000823e3d601f19601f82011682018060405250810190610dd29190611337565b600181518110610de557610de4611aaf565b5b60200260200101519050600160009054906101000a900473ffffffffffffffffffffffffffffffffffffffff1682600081518110610e2657610e25611aaf565b5b602002602001019073ffffffffffffffffffffffffffffffffffffffff16908173ffffffffffffffffffffffffffffffffffffffff168152505060008054906101000a900473ffffffffffffffffffffffffffffffffffffffff1682600181518110610e9557610e94611aaf565b5b602002602001019073ffffffffffffffffffffffffffffffffffffffff16908173ffffffffffffffffffffffffffffffffffffffff1681525050600160009054906101000a900473ffffffffffffffffffffffffffffffffffffffff1673ffffffffffffffffffffffffffffffffffffffff1663095ea7b3600360009054906101000a900473ffffffffffffffffffffffffffffffffffffffff16836040518363ffffffff1660e01b8152600401610f4e929190611689565b602060405180830381600087803b158015610f6857600080fd5b505af1158015610f7c573d6000803e3d6000fd5b505050506040513d601f19601f82011682018060405250810190610fa09190611380565b50600360009054906101000a900473ffffffffffffffffffffffffffffffffffffffff1673ffffffffffffffffffffffffffffffffffffffff166338ed17398260018533426040518663ffffffff1660e01b81526004016110059594939291906117e0565b600060405180830381600087803b15801561101f57600080fd5b505af1158015611033573d6000803e3d6000fd5b505050506040513d6000823e3d601f19601f8201168201806040525081019061105c9190611337565b60018151811061106f5761106e611aaf565b5b602002602001015192506110b86040518060400160405280600881526020017f454c59534f75743a00000000000000000000000000000000000000000000000081525084611115565b3373ffffffffffffffffffffffffffffffffffffffff167f41ce6e5ca71b51ea9ecf81ae761799ce9b24b971b53f9639473037a1ae71bfa1878588886040516111049493929190611863565b60405180910390a250509392505050565b6111ad828260405160240161112b929190611775565b6040516020818303038152906040527f9710a9d0000000000000000000000000000000000000000000000000000000007bffffffffffffffffffffffffffffffffffffffffffffffffffffffff19166020820180517bffffffffffffffffffffffffffffffffffffffffffffffffffffffff83818316178352505050506111b1565b5050565b60008151905060006a636f6e736f6c652e6c6f679050602083016000808483855afa5050505050565b60006111ed6111e8846118c8565b6118a3565b905080838252602082019050828560208602820111156112105761120f611b17565b5b60005b8581101561124057816112268882611322565b845260208401935060208301925050600181019050611213565b5050509392505050565b600082601f83011261125f5761125e611b12565b5b815161126f8482602086016111da565b91505092915050565b60008151905061128781611b60565b92915050565b60008135905061129c81611b77565b92915050565b60008083601f8401126112b8576112b7611b12565b5b8235905067ffffffffffffffff8111156112d5576112d4611b0d565b5b6020830191508360018202830111156112f1576112f0611b17565b5b9250929050565b60008151905061130781611b8e565b92915050565b60008135905061131c81611ba5565b92915050565b60008151905061133181611ba5565b92915050565b60006020828403121561134d5761134c611b21565b5b600082015167ffffffffffffffff81111561136b5761136a611b1c565b5b6113778482850161124a565b91505092915050565b60006020828403121561139657611395611b21565b5b60006113a484828501611278565b91505092915050565b600080600080600080608087890312156113ca576113c9611b21565b5b600087013567ffffffffffffffff8111156113e8576113e7611b1c565b5b6113f489828a016112a2565b9650965050602061140789828a0161130d565b945050604061141889828a0161128d565b935050606087013567ffffffffffffffff81111561143957611438611b1c565b5b61144589828a016112a2565b92509250509295509295509295565b60006020828403121561146a57611469611b21565b5b6000611478848285016112f8565b91505092915050565b60006020828403121561149757611496611b21565b5b60006114a58482850161130d565b91505092915050565b6000602082840312156114c4576114c3611b21565b5b60006114d284828501611322565b91505092915050565b60006114e783836114f3565b60208301905092915050565b6114fc8161195a565b82525050565b61150b8161195a565b82525050565b600061151c82611904565b6115268185611927565b9350611531836118f4565b8060005b8381101561156257815161154988826114db565b97506115548361191a565b925050600181019050611535565b5085935050505092915050565b61157881611978565b82525050565b600061158a8385611938565b9350611597838584611a3c565b6115a083611b26565b840190509392505050565b6115b4816119be565b82525050565b6115c3816119e2565b82525050565b6115d281611a06565b82525050565b6115e181611a2a565b82525050565b60006115f28261190f565b6115fc8185611949565b935061160c818560208601611a4b565b61161581611b26565b840191505092915050565b600061162d600383611949565b915061163882611b37565b602082019050919050565b61164c816119b4565b82525050565b60006060820190506116676000830186611502565b6116746020830185611502565b6116816040830184611643565b949350505050565b600060408201905061169e6000830185611502565b6116ab6020830184611643565b9392505050565b60006080820190506116c7600083018861156f565b6116d46020830187611643565b6116e1604083018661156f565b81810360608301526116f481848661157e565b90509695505050505050565b6000602082019050818103600083015261171b81848661157e565b90509392505050565b600060208201905061173960008301846115ab565b92915050565b600060208201905061175460008301846115ba565b92915050565b600060208201905061176f60008301846115c9565b92915050565b6000604082019050818103600083015261178f81856115e7565b905061179e6020830184611643565b9392505050565b600060208201905081810360008301526117be81611620565b9050919050565b60006020820190506117da6000830184611643565b92915050565b600060a0820190506117f56000830188611643565b61180260208301876115d8565b81810360408301526118148186611511565b90506118236060830185611502565b6118306080830184611643565b9695505050505050565b600060408201905061184f6000830185611643565b61185c6020830184611643565b9392505050565b60006060820190506118786000830187611643565b6118856020830186611643565b818103604083015261189881848661157e565b905095945050505050565b60006118ad6118be565b90506118b98282611a7e565b919050565b6000604051905090565b600067ffffffffffffffff8211156118e3576118e2611ade565b5b602082029050602081019050919050565b6000819050602082019050919050565b600081519050919050565b600081519050919050565b6000602082019050919050565b600082825260208201905092915050565b600082825260208201905092915050565b600082825260208201905092915050565b600061196582611994565b9050919050565b60008115159050919050565b6000819050919050565b600061198d8261195a565b9050919050565b600073ffffffffffffffffffffffffffffffffffffffff82169050919050565b6000819050919050565b60006119c9826119d0565b9050919050565b60006119db82611994565b9050919050565b60006119ed826119f4565b9050919050565b60006119ff82611994565b9050919050565b6000611a1182611a18565b9050919050565b6000611a2382611994565b9050919050565b6000611a35826119b4565b9050919050565b82818337600083830152505050565b60005b83811015611a69578082015181840152602081019050611a4e565b83811115611a78576000848401525b50505050565b611a8782611b26565b810181811067ffffffffffffffff82111715611aa657611aa5611ade565b5b80604052505050565b7f4e487b7100000000000000000000000000000000000000000000000000000000600052603260045260246000fd5b7f4e487b7100000000000000000000000000000000000000000000000000000000600052604160045260246000fd5b600080fd5b600080fd5b600080fd5b600080fd5b600080fd5b6000601f19601f8301169050919050565b7f4254430000000000000000000000000000000000000000000000000000000000600082015250565b611b698161196c565b8114611b7457600080fd5b50565b611b8081611978565b8114611b8b57600080fd5b50565b611b9781611982565b8114611ba257600080fd5b50565b611bae816119b4565b8114611bb957600080fd5b5056fea26469706673582212205e5e0877729567d821e4553bf63cdba605d660360340a10129d60ba405242dc964736f6c63430008060033",
  "linkReferences": {},
  "deployedLinkReferences": {}
}