{
  "contractName": "ELYSBTCSwap",
  "abi": [
    {
      "inputs": [],
      "name": "ELYS",
      "outputs": [
        {
          "internalType": "contract IERC20",
          "name": "",
          "type": "address"
        }
      ],
      "stateMutability": "view",
      "type": "function"
    },
    {
      "inputs": [],
      "name": "WFTM",
      "outputs": [
        {
          "internalType": "contract IERC20",
          "name": "",
          "type": "address"
        }
      ],
      "stateMutability": "view",
      "type": "function"
    },
    {
      "inputs": [],
      "name": "hyperJumpRouter",
      "outputs": [
        {
          "internalType": "contract IUniswapV2Router02",
          "name": "",
          "type": "address"
        }
      ],
      "stateMutability": "view",
      "type": "function"
    },
    {
      "inputs": [],
      "name": "renBTC",
      "outputs": [
        {
          "internalType": "contract IERC20",
          "name": "",
          "type": "address"
        }
      ],
      "stateMutability": "view",
      "type": "function"
    },
    {
      "inputs": [],
      "name": "zooDexRouter",
      "outputs": [
        {
          "internalType": "contract IUniswapV2Router02",
          "name": "",
          "type": "address"
        }
      ],
      "stateMutability": "view",
      "type": "function"
    },
    {
      "inputs": [
        {
          "internalType": "uint256",
          "name": "amountIn",
          "type": "uint256"
        }
      ],
      "name": "GetCumulativeWFTMOut",
      "outputs": [
        {
          "internalType": "uint256",
          "name": "amount",
          "type": "uint256"
        }
      ],
      "stateMutability": "view",
      "type": "function"
    },
    {
      "inputs": [
        {
          "internalType": "uint256",
          "name": "amountIn",
          "type": "uint256"
        }
      ],
      "name": "GetCumulativeRenBTCOut",
      "outputs": [
        {
          "internalType": "uint256",
          "name": "amount",
          "type": "uint256"
        }
      ],
      "stateMutability": "view",
      "type": "function"
    },
    {
      "inputs": [
        {
          "internalType": "uint256",
          "name": "amountIn",
          "type": "uint256"
        }
      ],
      "name": "swapELYSrenBTC",
      "outputs": [
        {
          "internalType": "uint256",
          "name": "renBTCOut",
          "type": "uint256"
        }
      ],
      "stateMutability": "nonpayable",
      "type": "function"
    }
  ],
  "bytecode": "0x608060405273d89cc0d2a28a769eadef50fff74ebc07405db9fc6000806101000a81548173ffffffffffffffffffffffffffffffffffffffff021916908373ffffffffffffffffffffffffffffffffffffffff1602179055507321be370d5312f44cb42ce377bc9b8a0cef1a4c83600160006101000a81548173ffffffffffffffffffffffffffffffffffffffff021916908373ffffffffffffffffffffffffffffffffffffffff16021790555073dbf31df14b66535af65aac99c32e9ea844e14501600260006101000a81548173ffffffffffffffffffffffffffffffffffffffff021916908373ffffffffffffffffffffffffffffffffffffffff1602179055507340b12a3e261416ff0035586ff96e23c2894560f2600360006101000a81548173ffffffffffffffffffffffffffffffffffffffff021916908373ffffffffffffffffffffffffffffffffffffffff1602179055507353c153a0df7e050bbefbb70ee9632061f12795fb600460006101000a81548173ffffffffffffffffffffffffffffffffffffffff021916908373ffffffffffffffffffffffffffffffffffffffff1602179055503480156101b857600080fd5b50611139806101c86000396000f3fe608060405234801561001057600080fd5b50600436106100885760003560e01c80639ee0277c1161005b5780639ee0277c146101ad578063be886a29146101ef578063cde2297214610239578063e52dc6fe1461027b57610088565b806308d25d591461008d57806321dbe876146100d75780632cc9782c146101215780635fbc103114610163575b600080fd5b6100956102c5565b604051808273ffffffffffffffffffffffffffffffffffffffff1673ffffffffffffffffffffffffffffffffffffffff16815260200191505060405180910390f35b6100df6102eb565b604051808273ffffffffffffffffffffffffffffffffffffffff1673ffffffffffffffffffffffffffffffffffffffff16815260200191505060405180910390f35b61014d6004803603602081101561013757600080fd5b8101908080359060200190929190505050610311565b6040518082815260200191505060405180910390f35b61016b610af5565b604051808273ffffffffffffffffffffffffffffffffffffffff1673ffffffffffffffffffffffffffffffffffffffff16815260200191505060405180910390f35b6101d9600480360360208110156101c357600080fd5b8101908080359060200190929190505050610b1b565b6040518082815260200191505060405180910390f35b6101f7610dea565b604051808273ffffffffffffffffffffffffffffffffffffffff1673ffffffffffffffffffffffffffffffffffffffff16815260200191505060405180910390f35b6102656004803603602081101561024f57600080fd5b8101908080359060200190929190505050610e10565b6040518082815260200191505060405180910390f35b6102836110de565b604051808273ffffffffffffffffffffffffffffffffffffffff1673ffffffffffffffffffffffffffffffffffffffff16815260200191505060405180910390f35b600460009054906101000a900473ffffffffffffffffffffffffffffffffffffffff1681565b600160009054906101000a900473ffffffffffffffffffffffffffffffffffffffff1681565b60008060009054906101000a900473ffffffffffffffffffffffffffffffffffffffff1673ffffffffffffffffffffffffffffffffffffffff166323b872dd3330856040518463ffffffff1660e01b8152600401808473ffffffffffffffffffffffffffffffffffffffff1673ffffffffffffffffffffffffffffffffffffffff1681526020018373ffffffffffffffffffffffffffffffffffffffff1673ffffffffffffffffffffffffffffffffffffffff1681526020018281526020019350505050602060405180830381600087803b1580156103ef57600080fd5b505af1158015610403573d6000803e3d6000fd5b505050506040513d602081101561041957600080fd5b810190808051906020019092919050505061049c576040517f08c379a00000000000000000000000000000000000000000000000000000000081526004018080602001828103825260148152602001807f7472616e7366657246726f6d206661696c65642e00000000000000000000000081525060200191505060405180910390fd5b6060600267ffffffffffffffff811180156104b657600080fd5b506040519080825280602002602001820160405280156104e55781602001602082028036833780820191505090505b5090506000809054906101000a900473ffffffffffffffffffffffffffffffffffffffff168160008151811061051757fe5b602002602001019073ffffffffffffffffffffffffffffffffffffffff16908173ffffffffffffffffffffffffffffffffffffffff1681525050600160009054906101000a900473ffffffffffffffffffffffffffffffffffffffff168160018151811061058157fe5b602002602001019073ffffffffffffffffffffffffffffffffffffffff16908173ffffffffffffffffffffffffffffffffffffffff168152505060006064605f6105ca86610e10565b02816105d257fe5b0490506000600360009054906101000a900473ffffffffffffffffffffffffffffffffffffffff1673ffffffffffffffffffffffffffffffffffffffff166338ed173986848630426040518663ffffffff1660e01b815260040180868152602001858152602001806020018473ffffffffffffffffffffffffffffffffffffffff1673ffffffffffffffffffffffffffffffffffffffff168152602001838152602001828103825285818151815260200191508051906020019060200280838360005b838110156106b0578082015181840152602081019050610695565b505050509050019650505050505050600060405180830381600087803b1580156106d957600080fd5b505af11580156106ed573d6000803e3d6000fd5b505050506040513d6000823e3d601f19601f82011682018060405250602081101561071757600080fd5b810190808051604051939291908464010000000082111561073757600080fd5b8382019150602082018581111561074d57600080fd5b825186602082028301116401000000008211171561076a57600080fd5b8083526020830192505050908051906020019060200280838360005b838110156107a1578082015181840152602081019050610786565b505050509050016040525050506001815181106107ba57fe5b602002602001015190506060600267ffffffffffffffff811180156107de57600080fd5b5060405190808252806020026020018201604052801561080d5781602001602082028036833780820191505090505b509050600160009054906101000a900473ffffffffffffffffffffffffffffffffffffffff168160008151811061084057fe5b602002602001019073ffffffffffffffffffffffffffffffffffffffff16908173ffffffffffffffffffffffffffffffffffffffff1681525050600260009054906101000a900473ffffffffffffffffffffffffffffffffffffffff16816001815181106108aa57fe5b602002602001019073ffffffffffffffffffffffffffffffffffffffff16908173ffffffffffffffffffffffffffffffffffffffff168152505060006064605f6108f385610b1b565b02816108fb57fe5b049050600460009054906101000a900473ffffffffffffffffffffffffffffffffffffffff1673ffffffffffffffffffffffffffffffffffffffff166338ed173988838533426040518663ffffffff1660e01b815260040180868152602001858152602001806020018473ffffffffffffffffffffffffffffffffffffffff1673ffffffffffffffffffffffffffffffffffffffff168152602001838152602001828103825285818151815260200191508051906020019060200280838360005b838110156109d75780820151818401526020810190506109bc565b505050509050019650505050505050600060405180830381600087803b158015610a0057600080fd5b505af1158015610a14573d6000803e3d6000fd5b505050506040513d6000823e3d601f19601f820116820180604052506020811015610a3e57600080fd5b8101908080516040519392919084640100000000821115610a5e57600080fd5b83820191506020820185811115610a7457600080fd5b8251866020820283011164010000000082111715610a9157600080fd5b8083526020830192505050908051906020019060200280838360005b83811015610ac8578082015181840152602081019050610aad565b50505050905001604052505050600181518110610ae157fe5b602002602001015195505050505050919050565b600260009054906101000a900473ffffffffffffffffffffffffffffffffffffffff1681565b60006060600267ffffffffffffffff81118015610b3757600080fd5b50604051908082528060200260200182016040528015610b665781602001602082028036833780820191505090505b509050600160009054906101000a900473ffffffffffffffffffffffffffffffffffffffff1681600081518110610b9957fe5b602002602001019073ffffffffffffffffffffffffffffffffffffffff16908173ffffffffffffffffffffffffffffffffffffffff1681525050600260009054906101000a900473ffffffffffffffffffffffffffffffffffffffff1681600181518110610c0357fe5b602002602001019073ffffffffffffffffffffffffffffffffffffffff16908173ffffffffffffffffffffffffffffffffffffffff1681525050600460009054906101000a900473ffffffffffffffffffffffffffffffffffffffff1673ffffffffffffffffffffffffffffffffffffffff1663d06ca61f84836040518363ffffffff1660e01b81526004018083815260200180602001828103825283818151815260200191508051906020019060200280838360005b83811015610cd5578082015181840152602081019050610cba565b50505050905001935050505060006040518083038186803b158015610cf957600080fd5b505afa158015610d0d573d6000803e3d6000fd5b505050506040513d6000823e3d601f19601f820116820180604052506020811015610d3757600080fd5b8101908080516040519392919084640100000000821115610d5757600080fd5b83820191506020820185811115610d6d57600080fd5b8251866020820283011164010000000082111715610d8a57600080fd5b8083526020830192505050908051906020019060200280838360005b83811015610dc1578082015181840152602081019050610da6565b50505050905001604052505050600181518110610dda57fe5b6020026020010151915050919050565b600360009054906101000a900473ffffffffffffffffffffffffffffffffffffffff1681565b60006060600267ffffffffffffffff81118015610e2c57600080fd5b50604051908082528060200260200182016040528015610e5b5781602001602082028036833780820191505090505b5090506000809054906101000a900473ffffffffffffffffffffffffffffffffffffffff1681600081518110610e8d57fe5b602002602001019073ffffffffffffffffffffffffffffffffffffffff16908173ffffffffffffffffffffffffffffffffffffffff1681525050600160009054906101000a900473ffffffffffffffffffffffffffffffffffffffff1681600181518110610ef757fe5b602002602001019073ffffffffffffffffffffffffffffffffffffffff16908173ffffffffffffffffffffffffffffffffffffffff1681525050600360009054906101000a900473ffffffffffffffffffffffffffffffffffffffff1673ffffffffffffffffffffffffffffffffffffffff1663d06ca61f84836040518363ffffffff1660e01b81526004018083815260200180602001828103825283818151815260200191508051906020019060200280838360005b83811015610fc9578082015181840152602081019050610fae565b50505050905001935050505060006040518083038186803b158015610fed57600080fd5b505afa158015611001573d6000803e3d6000fd5b505050506040513d6000823e3d601f19601f82011682018060405250602081101561102b57600080fd5b810190808051604051939291908464010000000082111561104b57600080fd5b8382019150602082018581111561106157600080fd5b825186602082028301116401000000008211171561107e57600080fd5b8083526020830192505050908051906020019060200280838360005b838110156110b557808201518184015260208101905061109a565b505050509050016040525050506001815181106110ce57fe5b6020026020010151915050919050565b6000809054906101000a900473ffffffffffffffffffffffffffffffffffffffff168156fea2646970667358221220682f4d32885a60cbaaad05a30644f5736ee59687cfb95eee252dc5035ab7802664736f6c63430006060033",
  "immutableReferences": {},
  "source": "pragma solidity =0.6.6;\r\n\r\nimport '@uniswap/v2-periphery/contracts/interfaces/IUniswapV2Router02.sol';\r\nimport '@openzeppelin/contracts/token/ERC20/IERC20.sol';\r\n\r\ncontract ELYSBTCSwap {\r\n    IERC20 public ELYS = IERC20(0xd89cc0d2A28a769eADeF50fFf74EBC07405DB9Fc);\r\n    IERC20 public WFTM = IERC20(0x21be370D5312f44cB42ce377BC9b8a0cEF1A4C83);\r\n    IERC20 public renBTC = IERC20(0xDBf31dF14B66535aF65AaC99C32e9eA844e14501);\r\n\r\n    IUniswapV2Router02 public zooDexRouter = IUniswapV2Router02(0x40b12a3E261416fF0035586ff96e23c2894560f2);\r\n    IUniswapV2Router02 public hyperJumpRouter = IUniswapV2Router02(0x53c153a0df7E050BbEFbb70eE9632061f12795fB);\r\n    \r\n    function GetCumulativeWFTMOut(uint amountIn) public view returns(uint amount) {\r\n        address[] memory path = new address[](2);\r\n        path[0] = address(ELYS);\r\n        path[1] = address(WFTM);\r\n        amount = zooDexRouter.getAmountsOut(amountIn, path)[1];\r\n    }\r\n\r\n    function GetCumulativeRenBTCOut(uint amountIn) public view returns(uint amount) {\r\n        address[] memory path = new address[](2);\r\n        path[0] = address(WFTM);\r\n        path[1] = address(renBTC);\r\n        amount = hyperJumpRouter.getAmountsOut(amountIn, path)[1];\r\n    }\r\n\r\n    function swapELYSrenBTC(uint amountIn) public returns(uint renBTCOut) {\r\n        require(ELYS.transferFrom(msg.sender, address(this), amountIn), 'transferFrom failed.');\r\n\r\n        address[] memory paths0 = new address[](2);\r\n        paths0[0] = address(ELYS);\r\n        paths0[1] = address(WFTM);\r\n        uint WFTMOutMin = (GetCumulativeWFTMOut(amountIn) * 95) / 100;  // 5% max slippage \r\n        uint WFTMOut = zooDexRouter.swapExactTokensForTokens(amountIn, WFTMOutMin, paths0, address(this), block.timestamp)[1];\r\n\r\n        address[] memory paths1 = new address[](2);\r\n        paths1[0] = address(WFTM);\r\n        paths1[1] = address(renBTC);\r\n        uint renBTCOutMin = (GetCumulativeRenBTCOut(WFTMOut) * 95) / 100;  // 5% max slippage \r\n        renBTCOut = hyperJumpRouter.swapExactTokensForTokens(amountIn, renBTCOutMin, paths1, msg.sender, block.timestamp)[1];\r\n    }\r\n}",
  "sourcePath": "E:\\Bounties\\elys-bridge\\contracts\\ElysBTCSwap.sol",
  "compiler": {
    "name": "solc",
    "version": "0.6.6+commit.6c089d02.Emscripten.clang"
  },
  "schemaVersion": "3.4.3",
  "updatedAt": "2021-11-13T14:35:05.657Z",
  "devdoc": {
    "methods": {}
  },
  "userdoc": {
    "methods": {}
  }
}